{
	"data": {
		"bytecode": {
			"linkReferences": {},
			"object": "608060405234801561000f575f80fd5b506108488061001d5f395ff3fe608060405234801561000f575f80fd5b506004361061004a575f3560e01c8063063cfccb1461004e5780630a5eecd71461006a5780638fce12ed14610088578063ef9fc50b146100b8575b5f80fd5b61006860048036038101906100639190610312565b6100e8565b005b6100726100fa565b60405161007f91906103d3565b60405180910390f35b6100a2600480360381019061009d9190610426565b610189565b6040516100af9190610473565b60405180910390f35b6100d260048036038101906100cd9190610426565b6101a7565b6040516100df9190610473565b60405180910390f35b805f90816100f69190610686565b5050565b60605f8054610108906104b9565b80601f0160208091040260200160405190810160405280929190818152602001828054610134906104b9565b801561017f5780601f106101565761010080835404028352916020019161017f565b820191905f5260205f20905b81548152906001019060200180831161016257829003601f168201915b5050505050905090565b5f818361019691906107af565b600281905550600254905092915050565b5f81836101b491906107df565b600181905550600154905092915050565b5f604051905090565b5f80fd5b5f80fd5b5f80fd5b5f80fd5b5f601f19601f8301169050919050565b7f4e487b71000000000000000000000000000000000000000000000000000000005f52604160045260245ffd5b610224826101de565b810181811067ffffffffffffffff82111715610243576102426101ee565b5b80604052505050565b5f6102556101c5565b9050610261828261021b565b919050565b5f67ffffffffffffffff8211156102805761027f6101ee565b5b610289826101de565b9050602081019050919050565b828183375f83830152505050565b5f6102b66102b184610266565b61024c565b9050828152602081018484840111156102d2576102d16101da565b5b6102dd848285610296565b509392505050565b5f82601f8301126102f9576102f86101d6565b5b81356103098482602086016102a4565b91505092915050565b5f60208284031215610327576103266101ce565b5b5f82013567ffffffffffffffff811115610344576103436101d2565b5b610350848285016102e5565b91505092915050565b5f81519050919050565b5f82825260208201905092915050565b5f5b83811015610390578082015181840152602081019050610375565b5f8484015250505050565b5f6103a582610359565b6103af8185610363565b93506103bf818560208601610373565b6103c8816101de565b840191505092915050565b5f6020820190508181035f8301526103eb818461039b565b905092915050565b5f819050919050565b610405816103f3565b811461040f575f80fd5b50565b5f81359050610420816103fc565b92915050565b5f806040838503121561043c5761043b6101ce565b5b5f61044985828601610412565b925050602061045a85828601610412565b9150509250929050565b61046d816103f3565b82525050565b5f6020820190506104865f830184610464565b92915050565b7f4e487b71000000000000000000000000000000000000000000000000000000005f52602260045260245ffd5b5f60028204905060018216806104d057607f821691505b6020821081036104e3576104e261048c565b5b50919050565b5f819050815f5260205f209050919050565b5f6020601f8301049050919050565b5f82821b905092915050565b5f600883026105457fffffffffffffffffffffffffffffffffffffffffffffffffffffffffffffffff8261050a565b61054f868361050a565b95508019841693508086168417925050509392505050565b5f819050919050565b5f61058a610585610580846103f3565b610567565b6103f3565b9050919050565b5f819050919050565b6105a383610570565b6105b76105af82610591565b848454610516565b825550505050565b5f90565b6105cb6105bf565b6105d681848461059a565b505050565b5b818110156105f9576105ee5f826105c3565b6001810190506105dc565b5050565b601f82111561063e5761060f816104e9565b610618846104fb565b81016020851015610627578190505b61063b610633856104fb565b8301826105db565b50505b505050565b5f82821c905092915050565b5f61065e5f1984600802610643565b1980831691505092915050565b5f610676838361064f565b9150826002028217905092915050565b61068f82610359565b67ffffffffffffffff8111156106a8576106a76101ee565b5b6106b282546104b9565b6106bd8282856105fd565b5f60209050601f8311600181146106ee575f84156106dc578287015190505b6106e6858261066b565b86555061074d565b601f1984166106fc866104e9565b5f5b82811015610723578489015182556001820191506020850194506020810190506106fe565b86831015610740578489015161073c601f89168261064f565b8355505b6001600288020188555050505b505050505050565b7f4e487b71000000000000000000000000000000000000000000000000000000005f52601260045260245ffd5b7f4e487b71000000000000000000000000000000000000000000000000000000005f52601160045260245ffd5b5f6107b9826103f3565b91506107c4836103f3565b9250826107d4576107d3610755565b5b828204905092915050565b5f6107e9826103f3565b91506107f4836103f3565b925082820190508082111561080c5761080b610782565b5b9291505056fea26469706673582212201d6b6f0adb792bf53aa8e33a90d5c7255ea9b0db10c4bfbe73ea1d64001581bf64736f6c63430008180033",
			"opcodes": "PUSH1 0x80 PUSH1 0x40 MSTORE CALLVALUE DUP1 ISZERO PUSH2 0xF JUMPI PUSH0 DUP1 REVERT JUMPDEST POP PUSH2 0x848 DUP1 PUSH2 0x1D PUSH0 CODECOPY PUSH0 RETURN INVALID PUSH1 0x80 PUSH1 0x40 MSTORE CALLVALUE DUP1 ISZERO PUSH2 0xF JUMPI PUSH0 DUP1 REVERT JUMPDEST POP PUSH1 0x4 CALLDATASIZE LT PUSH2 0x4A JUMPI PUSH0 CALLDATALOAD PUSH1 0xE0 SHR DUP1 PUSH4 0x63CFCCB EQ PUSH2 0x4E JUMPI DUP1 PUSH4 0xA5EECD7 EQ PUSH2 0x6A JUMPI DUP1 PUSH4 0x8FCE12ED EQ PUSH2 0x88 JUMPI DUP1 PUSH4 0xEF9FC50B EQ PUSH2 0xB8 JUMPI JUMPDEST PUSH0 DUP1 REVERT JUMPDEST PUSH2 0x68 PUSH1 0x4 DUP1 CALLDATASIZE SUB DUP2 ADD SWAP1 PUSH2 0x63 SWAP2 SWAP1 PUSH2 0x312 JUMP JUMPDEST PUSH2 0xE8 JUMP JUMPDEST STOP JUMPDEST PUSH2 0x72 PUSH2 0xFA JUMP JUMPDEST PUSH1 0x40 MLOAD PUSH2 0x7F SWAP2 SWAP1 PUSH2 0x3D3 JUMP JUMPDEST PUSH1 0x40 MLOAD DUP1 SWAP2 SUB SWAP1 RETURN JUMPDEST PUSH2 0xA2 PUSH1 0x4 DUP1 CALLDATASIZE SUB DUP2 ADD SWAP1 PUSH2 0x9D SWAP2 SWAP1 PUSH2 0x426 JUMP JUMPDEST PUSH2 0x189 JUMP JUMPDEST PUSH1 0x40 MLOAD PUSH2 0xAF SWAP2 SWAP1 PUSH2 0x473 JUMP JUMPDEST PUSH1 0x40 MLOAD DUP1 SWAP2 SUB SWAP1 RETURN JUMPDEST PUSH2 0xD2 PUSH1 0x4 DUP1 CALLDATASIZE SUB DUP2 ADD SWAP1 PUSH2 0xCD SWAP2 SWAP1 PUSH2 0x426 JUMP JUMPDEST PUSH2 0x1A7 JUMP JUMPDEST PUSH1 0x40 MLOAD PUSH2 0xDF SWAP2 SWAP1 PUSH2 0x473 JUMP JUMPDEST PUSH1 0x40 MLOAD DUP1 SWAP2 SUB SWAP1 RETURN JUMPDEST DUP1 PUSH0 SWAP1 DUP2 PUSH2 0xF6 SWAP2 SWAP1 PUSH2 0x686 JUMP JUMPDEST POP POP JUMP JUMPDEST PUSH1 0x60 PUSH0 DUP1 SLOAD PUSH2 0x108 SWAP1 PUSH2 0x4B9 JUMP JUMPDEST DUP1 PUSH1 0x1F ADD PUSH1 0x20 DUP1 SWAP2 DIV MUL PUSH1 0x20 ADD PUSH1 0x40 MLOAD SWAP1 DUP2 ADD PUSH1 0x40 MSTORE DUP1 SWAP3 SWAP2 SWAP1 DUP2 DUP2 MSTORE PUSH1 0x20 ADD DUP3 DUP1 SLOAD PUSH2 0x134 SWAP1 PUSH2 0x4B9 JUMP JUMPDEST DUP1 ISZERO PUSH2 0x17F JUMPI DUP1 PUSH1 0x1F LT PUSH2 0x156 JUMPI PUSH2 0x100 DUP1 DUP4 SLOAD DIV MUL DUP4 MSTORE SWAP2 PUSH1 0x20 ADD SWAP2 PUSH2 0x17F JUMP JUMPDEST DUP3 ADD SWAP2 SWAP1 PUSH0 MSTORE PUSH1 0x20 PUSH0 KECCAK256 SWAP1 JUMPDEST DUP2 SLOAD DUP2 MSTORE SWAP1 PUSH1 0x1 ADD SWAP1 PUSH1 0x20 ADD DUP1 DUP4 GT PUSH2 0x162 JUMPI DUP3 SWAP1 SUB PUSH1 0x1F AND DUP3 ADD SWAP2 JUMPDEST POP POP POP POP POP SWAP1 POP SWAP1 JUMP JUMPDEST PUSH0 DUP2 DUP4 PUSH2 0x196 SWAP2 SWAP1 PUSH2 0x7AF JUMP JUMPDEST PUSH1 0x2 DUP2 SWAP1 SSTORE POP PUSH1 0x2 SLOAD SWAP1 POP SWAP3 SWAP2 POP POP JUMP JUMPDEST PUSH0 DUP2 DUP4 PUSH2 0x1B4 SWAP2 SWAP1 PUSH2 0x7DF JUMP JUMPDEST PUSH1 0x1 DUP2 SWAP1 SSTORE POP PUSH1 0x1 SLOAD SWAP1 POP SWAP3 SWAP2 POP POP JUMP JUMPDEST PUSH0 PUSH1 0x40 MLOAD SWAP1 POP SWAP1 JUMP JUMPDEST PUSH0 DUP1 REVERT JUMPDEST PUSH0 DUP1 REVERT JUMPDEST PUSH0 DUP1 REVERT JUMPDEST PUSH0 DUP1 REVERT JUMPDEST PUSH0 PUSH1 0x1F NOT PUSH1 0x1F DUP4 ADD AND SWAP1 POP SWAP2 SWAP1 POP JUMP JUMPDEST PUSH32 0x4E487B7100000000000000000000000000000000000000000000000000000000 PUSH0 MSTORE PUSH1 0x41 PUSH1 0x4 MSTORE PUSH1 0x24 PUSH0 REVERT JUMPDEST PUSH2 0x224 DUP3 PUSH2 0x1DE JUMP JUMPDEST DUP2 ADD DUP2 DUP2 LT PUSH8 0xFFFFFFFFFFFFFFFF DUP3 GT OR ISZERO PUSH2 0x243 JUMPI PUSH2 0x242 PUSH2 0x1EE JUMP JUMPDEST JUMPDEST DUP1 PUSH1 0x40 MSTORE POP POP POP JUMP JUMPDEST PUSH0 PUSH2 0x255 PUSH2 0x1C5 JUMP JUMPDEST SWAP1 POP PUSH2 0x261 DUP3 DUP3 PUSH2 0x21B JUMP JUMPDEST SWAP2 SWAP1 POP JUMP JUMPDEST PUSH0 PUSH8 0xFFFFFFFFFFFFFFFF DUP3 GT ISZERO PUSH2 0x280 JUMPI PUSH2 0x27F PUSH2 0x1EE JUMP JUMPDEST JUMPDEST PUSH2 0x289 DUP3 PUSH2 0x1DE JUMP JUMPDEST SWAP1 POP PUSH1 0x20 DUP2 ADD SWAP1 POP SWAP2 SWAP1 POP JUMP JUMPDEST DUP3 DUP2 DUP4 CALLDATACOPY PUSH0 DUP4 DUP4 ADD MSTORE POP POP POP JUMP JUMPDEST PUSH0 PUSH2 0x2B6 PUSH2 0x2B1 DUP5 PUSH2 0x266 JUMP JUMPDEST PUSH2 0x24C JUMP JUMPDEST SWAP1 POP DUP3 DUP2 MSTORE PUSH1 0x20 DUP2 ADD DUP5 DUP5 DUP5 ADD GT ISZERO PUSH2 0x2D2 JUMPI PUSH2 0x2D1 PUSH2 0x1DA JUMP JUMPDEST JUMPDEST PUSH2 0x2DD DUP5 DUP3 DUP6 PUSH2 0x296 JUMP JUMPDEST POP SWAP4 SWAP3 POP POP POP JUMP JUMPDEST PUSH0 DUP3 PUSH1 0x1F DUP4 ADD SLT PUSH2 0x2F9 JUMPI PUSH2 0x2F8 PUSH2 0x1D6 JUMP JUMPDEST JUMPDEST DUP2 CALLDATALOAD PUSH2 0x309 DUP5 DUP3 PUSH1 0x20 DUP7 ADD PUSH2 0x2A4 JUMP JUMPDEST SWAP2 POP POP SWAP3 SWAP2 POP POP JUMP JUMPDEST PUSH0 PUSH1 0x20 DUP3 DUP5 SUB SLT ISZERO PUSH2 0x327 JUMPI PUSH2 0x326 PUSH2 0x1CE JUMP JUMPDEST JUMPDEST PUSH0 DUP3 ADD CALLDATALOAD PUSH8 0xFFFFFFFFFFFFFFFF DUP2 GT ISZERO PUSH2 0x344 JUMPI PUSH2 0x343 PUSH2 0x1D2 JUMP JUMPDEST JUMPDEST PUSH2 0x350 DUP5 DUP3 DUP6 ADD PUSH2 0x2E5 JUMP JUMPDEST SWAP2 POP POP SWAP3 SWAP2 POP POP JUMP JUMPDEST PUSH0 DUP2 MLOAD SWAP1 POP SWAP2 SWAP1 POP JUMP JUMPDEST PUSH0 DUP3 DUP3 MSTORE PUSH1 0x20 DUP3 ADD SWAP1 POP SWAP3 SWAP2 POP POP JUMP JUMPDEST PUSH0 JUMPDEST DUP4 DUP2 LT ISZERO PUSH2 0x390 JUMPI DUP1 DUP3 ADD MLOAD DUP2 DUP5 ADD MSTORE PUSH1 0x20 DUP2 ADD SWAP1 POP PUSH2 0x375 JUMP JUMPDEST PUSH0 DUP5 DUP5 ADD MSTORE POP POP POP POP JUMP JUMPDEST PUSH0 PUSH2 0x3A5 DUP3 PUSH2 0x359 JUMP JUMPDEST PUSH2 0x3AF DUP2 DUP6 PUSH2 0x363 JUMP JUMPDEST SWAP4 POP PUSH2 0x3BF DUP2 DUP6 PUSH1 0x20 DUP7 ADD PUSH2 0x373 JUMP JUMPDEST PUSH2 0x3C8 DUP2 PUSH2 0x1DE JUMP JUMPDEST DUP5 ADD SWAP2 POP POP SWAP3 SWAP2 POP POP JUMP JUMPDEST PUSH0 PUSH1 0x20 DUP3 ADD SWAP1 POP DUP2 DUP2 SUB PUSH0 DUP4 ADD MSTORE PUSH2 0x3EB DUP2 DUP5 PUSH2 0x39B JUMP JUMPDEST SWAP1 POP SWAP3 SWAP2 POP POP JUMP JUMPDEST PUSH0 DUP2 SWAP1 POP SWAP2 SWAP1 POP JUMP JUMPDEST PUSH2 0x405 DUP2 PUSH2 0x3F3 JUMP JUMPDEST DUP2 EQ PUSH2 0x40F JUMPI PUSH0 DUP1 REVERT JUMPDEST POP JUMP JUMPDEST PUSH0 DUP2 CALLDATALOAD SWAP1 POP PUSH2 0x420 DUP2 PUSH2 0x3FC JUMP JUMPDEST SWAP3 SWAP2 POP POP JUMP JUMPDEST PUSH0 DUP1 PUSH1 0x40 DUP4 DUP6 SUB SLT ISZERO PUSH2 0x43C JUMPI PUSH2 0x43B PUSH2 0x1CE JUMP JUMPDEST JUMPDEST PUSH0 PUSH2 0x449 DUP6 DUP3 DUP7 ADD PUSH2 0x412 JUMP JUMPDEST SWAP3 POP POP PUSH1 0x20 PUSH2 0x45A DUP6 DUP3 DUP7 ADD PUSH2 0x412 JUMP JUMPDEST SWAP2 POP POP SWAP3 POP SWAP3 SWAP1 POP JUMP JUMPDEST PUSH2 0x46D DUP2 PUSH2 0x3F3 JUMP JUMPDEST DUP3 MSTORE POP POP JUMP JUMPDEST PUSH0 PUSH1 0x20 DUP3 ADD SWAP1 POP PUSH2 0x486 PUSH0 DUP4 ADD DUP5 PUSH2 0x464 JUMP JUMPDEST SWAP3 SWAP2 POP POP JUMP JUMPDEST PUSH32 0x4E487B7100000000000000000000000000000000000000000000000000000000 PUSH0 MSTORE PUSH1 0x22 PUSH1 0x4 MSTORE PUSH1 0x24 PUSH0 REVERT JUMPDEST PUSH0 PUSH1 0x2 DUP3 DIV SWAP1 POP PUSH1 0x1 DUP3 AND DUP1 PUSH2 0x4D0 JUMPI PUSH1 0x7F DUP3 AND SWAP2 POP JUMPDEST PUSH1 0x20 DUP3 LT DUP2 SUB PUSH2 0x4E3 JUMPI PUSH2 0x4E2 PUSH2 0x48C JUMP JUMPDEST JUMPDEST POP SWAP2 SWAP1 POP JUMP JUMPDEST PUSH0 DUP2 SWAP1 POP DUP2 PUSH0 MSTORE PUSH1 0x20 PUSH0 KECCAK256 SWAP1 POP SWAP2 SWAP1 POP JUMP JUMPDEST PUSH0 PUSH1 0x20 PUSH1 0x1F DUP4 ADD DIV SWAP1 POP SWAP2 SWAP1 POP JUMP JUMPDEST PUSH0 DUP3 DUP3 SHL SWAP1 POP SWAP3 SWAP2 POP POP JUMP JUMPDEST PUSH0 PUSH1 0x8 DUP4 MUL PUSH2 0x545 PUSH32 0xFFFFFFFFFFFFFFFFFFFFFFFFFFFFFFFFFFFFFFFFFFFFFFFFFFFFFFFFFFFFFFFF DUP3 PUSH2 0x50A JUMP JUMPDEST PUSH2 0x54F DUP7 DUP4 PUSH2 0x50A JUMP JUMPDEST SWAP6 POP DUP1 NOT DUP5 AND SWAP4 POP DUP1 DUP7 AND DUP5 OR SWAP3 POP POP POP SWAP4 SWAP3 POP POP POP JUMP JUMPDEST PUSH0 DUP2 SWAP1 POP SWAP2 SWAP1 POP JUMP JUMPDEST PUSH0 PUSH2 0x58A PUSH2 0x585 PUSH2 0x580 DUP5 PUSH2 0x3F3 JUMP JUMPDEST PUSH2 0x567 JUMP JUMPDEST PUSH2 0x3F3 JUMP JUMPDEST SWAP1 POP SWAP2 SWAP1 POP JUMP JUMPDEST PUSH0 DUP2 SWAP1 POP SWAP2 SWAP1 POP JUMP JUMPDEST PUSH2 0x5A3 DUP4 PUSH2 0x570 JUMP JUMPDEST PUSH2 0x5B7 PUSH2 0x5AF DUP3 PUSH2 0x591 JUMP JUMPDEST DUP5 DUP5 SLOAD PUSH2 0x516 JUMP JUMPDEST DUP3 SSTORE POP POP POP POP JUMP JUMPDEST PUSH0 SWAP1 JUMP JUMPDEST PUSH2 0x5CB PUSH2 0x5BF JUMP JUMPDEST PUSH2 0x5D6 DUP2 DUP5 DUP5 PUSH2 0x59A JUMP JUMPDEST POP POP POP JUMP JUMPDEST JUMPDEST DUP2 DUP2 LT ISZERO PUSH2 0x5F9 JUMPI PUSH2 0x5EE PUSH0 DUP3 PUSH2 0x5C3 JUMP JUMPDEST PUSH1 0x1 DUP2 ADD SWAP1 POP PUSH2 0x5DC JUMP JUMPDEST POP POP JUMP JUMPDEST PUSH1 0x1F DUP3 GT ISZERO PUSH2 0x63E JUMPI PUSH2 0x60F DUP2 PUSH2 0x4E9 JUMP JUMPDEST PUSH2 0x618 DUP5 PUSH2 0x4FB JUMP JUMPDEST DUP2 ADD PUSH1 0x20 DUP6 LT ISZERO PUSH2 0x627 JUMPI DUP2 SWAP1 POP JUMPDEST PUSH2 0x63B PUSH2 0x633 DUP6 PUSH2 0x4FB JUMP JUMPDEST DUP4 ADD DUP3 PUSH2 0x5DB JUMP JUMPDEST POP POP JUMPDEST POP POP POP JUMP JUMPDEST PUSH0 DUP3 DUP3 SHR SWAP1 POP SWAP3 SWAP2 POP POP JUMP JUMPDEST PUSH0 PUSH2 0x65E PUSH0 NOT DUP5 PUSH1 0x8 MUL PUSH2 0x643 JUMP JUMPDEST NOT DUP1 DUP4 AND SWAP2 POP POP SWAP3 SWAP2 POP POP JUMP JUMPDEST PUSH0 PUSH2 0x676 DUP4 DUP4 PUSH2 0x64F JUMP JUMPDEST SWAP2 POP DUP3 PUSH1 0x2 MUL DUP3 OR SWAP1 POP SWAP3 SWAP2 POP POP JUMP JUMPDEST PUSH2 0x68F DUP3 PUSH2 0x359 JUMP JUMPDEST PUSH8 0xFFFFFFFFFFFFFFFF DUP2 GT ISZERO PUSH2 0x6A8 JUMPI PUSH2 0x6A7 PUSH2 0x1EE JUMP JUMPDEST JUMPDEST PUSH2 0x6B2 DUP3 SLOAD PUSH2 0x4B9 JUMP JUMPDEST PUSH2 0x6BD DUP3 DUP3 DUP6 PUSH2 0x5FD JUMP JUMPDEST PUSH0 PUSH1 0x20 SWAP1 POP PUSH1 0x1F DUP4 GT PUSH1 0x1 DUP2 EQ PUSH2 0x6EE JUMPI PUSH0 DUP5 ISZERO PUSH2 0x6DC JUMPI DUP3 DUP8 ADD MLOAD SWAP1 POP JUMPDEST PUSH2 0x6E6 DUP6 DUP3 PUSH2 0x66B JUMP JUMPDEST DUP7 SSTORE POP PUSH2 0x74D JUMP JUMPDEST PUSH1 0x1F NOT DUP5 AND PUSH2 0x6FC DUP7 PUSH2 0x4E9 JUMP JUMPDEST PUSH0 JUMPDEST DUP3 DUP2 LT ISZERO PUSH2 0x723 JUMPI DUP5 DUP10 ADD MLOAD DUP3 SSTORE PUSH1 0x1 DUP3 ADD SWAP2 POP PUSH1 0x20 DUP6 ADD SWAP5 POP PUSH1 0x20 DUP2 ADD SWAP1 POP PUSH2 0x6FE JUMP JUMPDEST DUP7 DUP4 LT ISZERO PUSH2 0x740 JUMPI DUP5 DUP10 ADD MLOAD PUSH2 0x73C PUSH1 0x1F DUP10 AND DUP3 PUSH2 0x64F JUMP JUMPDEST DUP4 SSTORE POP JUMPDEST PUSH1 0x1 PUSH1 0x2 DUP9 MUL ADD DUP9 SSTORE POP POP POP JUMPDEST POP POP POP POP POP POP JUMP JUMPDEST PUSH32 0x4E487B7100000000000000000000000000000000000000000000000000000000 PUSH0 MSTORE PUSH1 0x12 PUSH1 0x4 MSTORE PUSH1 0x24 PUSH0 REVERT JUMPDEST PUSH32 0x4E487B7100000000000000000000000000000000000000000000000000000000 PUSH0 MSTORE PUSH1 0x11 PUSH1 0x4 MSTORE PUSH1 0x24 PUSH0 REVERT JUMPDEST PUSH0 PUSH2 0x7B9 DUP3 PUSH2 0x3F3 JUMP JUMPDEST SWAP2 POP PUSH2 0x7C4 DUP4 PUSH2 0x3F3 JUMP JUMPDEST SWAP3 POP DUP3 PUSH2 0x7D4 JUMPI PUSH2 0x7D3 PUSH2 0x755 JUMP JUMPDEST JUMPDEST DUP3 DUP3 DIV SWAP1 POP SWAP3 SWAP2 POP POP JUMP JUMPDEST PUSH0 PUSH2 0x7E9 DUP3 PUSH2 0x3F3 JUMP JUMPDEST SWAP2 POP PUSH2 0x7F4 DUP4 PUSH2 0x3F3 JUMP JUMPDEST SWAP3 POP DUP3 DUP3 ADD SWAP1 POP DUP1 DUP3 GT ISZERO PUSH2 0x80C JUMPI PUSH2 0x80B PUSH2 0x782 JUMP JUMPDEST JUMPDEST SWAP3 SWAP2 POP POP JUMP INVALID LOG2 PUSH5 0x6970667358 0x22 SLT KECCAK256 SAR PUSH12 0x6F0ADB792BF53AA8E33A90D5 0xC7 0x25 MCOPY 0xA9 0xB0 0xDB LT 0xC4 0xBF 0xBE PUSH20 0xEA1D64001581BF64736F6C634300081800330000 "
		},
		"gasEstimates": {
			"creation": {
				"codeDepositCost": "424000",
				"executionCost": "459",
				"totalCost": "424459"
			},
			"external": {
				"addNumbers(uint256,uint256)": "infinite",
				"divideNumbers(uint256,uint256)": "infinite",
				"retrieveName()": "infinite",
				"storeName(string)": "infinite"
			}
		},
		"methodIdentifiers": {
			"addNumbers(uint256,uint256)": "ef9fc50b",
			"divideNumbers(uint256,uint256)": "8fce12ed",
			"retrieveName()": "0a5eecd7",
			"storeName(string)": "063cfccb"
		}
	},
	"abi": [
		{
			"inputs": [
				{
					"internalType": "uint256",
					"name": "num1",
					"type": "uint256"
				},
				{
					"internalType": "uint256",
					"name": "num2",
					"type": "uint256"
				}
			],
			"name": "addNumbers",
			"outputs": [
				{
					"internalType": "uint256",
					"name": "",
					"type": "uint256"
				}
			],
			"stateMutability": "nonpayable",
			"type": "function"
		},
		{
			"inputs": [
				{
					"internalType": "uint256",
					"name": "num1",
					"type": "uint256"
				},
				{
					"internalType": "uint256",
					"name": "num2",
					"type": "uint256"
				}
			],
			"name": "divideNumbers",
			"outputs": [
				{
					"internalType": "uint256",
					"name": "",
					"type": "uint256"
				}
			],
			"stateMutability": "nonpayable",
			"type": "function"
		},
		{
			"inputs": [],
			"name": "retrieveName",
			"outputs": [
				{
					"internalType": "string",
					"name": "",
					"type": "string"
				}
			],
			"stateMutability": "view",
			"type": "function"
		},
		{
			"inputs": [
				{
					"internalType": "string",
					"name": "currName",
					"type": "string"
				}
			],
			"name": "storeName",
			"outputs": [],
			"stateMutability": "nonpayable",
			"type": "function"
		}
	]
}